{
    "_format": "hh-sol-artifact-1",
    "contractName": "MySmartNFT",
    "sourceName": "contracts/MySmartNFT.sol",
    "abi": [
        {
            "inputs": [],
            "stateMutability": "nonpayable",
            "type": "constructor"
        },
        {
            "inputs": [
                {
                    "internalType": "address",
                    "name": "sender",
                    "type": "address"
                },
                {
                    "internalType": "uint256",
                    "name": "tokenId",
                    "type": "uint256"
                },
                {
                    "internalType": "address",
                    "name": "owner",
                    "type": "address"
                }
            ],
            "name": "ERC721IncorrectOwner",
            "type": "error"
        },
        {
            "inputs": [
                {
                    "internalType": "address",
                    "name": "operator",
                    "type": "address"
                },
                {
                    "internalType": "uint256",
                    "name": "tokenId",
                    "type": "uint256"
                }
            ],
            "name": "ERC721InsufficientApproval",
            "type": "error"
        },
        {
            "inputs": [
                {
                    "internalType": "address",
                    "name": "approver",
                    "type": "address"
                }
            ],
            "name": "ERC721InvalidApprover",
            "type": "error"
        },
        {
            "inputs": [
                {
                    "internalType": "address",
                    "name": "operator",
                    "type": "address"
                }
            ],
            "name": "ERC721InvalidOperator",
            "type": "error"
        },
        {
            "inputs": [
                {
                    "internalType": "address",
                    "name": "owner",
                    "type": "address"
                }
            ],
            "name": "ERC721InvalidOwner",
            "type": "error"
        },
        {
            "inputs": [
                {
                    "internalType": "address",
                    "name": "receiver",
                    "type": "address"
                }
            ],
            "name": "ERC721InvalidReceiver",
            "type": "error"
        },
        {
            "inputs": [
                {
                    "internalType": "address",
                    "name": "sender",
                    "type": "address"
                }
            ],
            "name": "ERC721InvalidSender",
            "type": "error"
        },
        {
            "inputs": [
                {
                    "internalType": "uint256",
                    "name": "tokenId",
                    "type": "uint256"
                }
            ],
            "name": "ERC721NonexistentToken",
            "type": "error"
        },
        {
            "anonymous": false,
            "inputs": [
                {
                    "indexed": true,
                    "internalType": "address",
                    "name": "owner",
                    "type": "address"
                },
                {
                    "indexed": true,
                    "internalType": "address",
                    "name": "approved",
                    "type": "address"
                },
                {
                    "indexed": true,
                    "internalType": "uint256",
                    "name": "tokenId",
                    "type": "uint256"
                }
            ],
            "name": "Approval",
            "type": "event"
        },
        {
            "anonymous": false,
            "inputs": [
                {
                    "indexed": true,
                    "internalType": "address",
                    "name": "owner",
                    "type": "address"
                },
                {
                    "indexed": true,
                    "internalType": "address",
                    "name": "operator",
                    "type": "address"
                },
                {
                    "indexed": false,
                    "internalType": "bool",
                    "name": "approved",
                    "type": "bool"
                }
            ],
            "name": "ApprovalForAll",
            "type": "event"
        },
        {
            "anonymous": false,
            "inputs": [
                {
                    "indexed": false,
                    "internalType": "uint256",
                    "name": "_fromTokenId",
                    "type": "uint256"
                },
                {
                    "indexed": false,
                    "internalType": "uint256",
                    "name": "_toTokenId",
                    "type": "uint256"
                }
            ],
            "name": "BatchMetadataUpdate",
            "type": "event"
        },
        {
            "anonymous": false,
            "inputs": [
                {
                    "indexed": false,
                    "internalType": "uint256",
                    "name": "_tokenId",
                    "type": "uint256"
                }
            ],
            "name": "MetadataUpdate",
            "type": "event"
        },
        {
            "anonymous": false,
            "inputs": [
                {
                    "indexed": true,
                    "internalType": "address",
                    "name": "from",
                    "type": "address"
                },
                {
                    "indexed": true,
                    "internalType": "address",
                    "name": "to",
                    "type": "address"
                },
                {
                    "indexed": true,
                    "internalType": "uint256",
                    "name": "tokenId",
                    "type": "uint256"
                }
            ],
            "name": "Transfer",
            "type": "event"
        },
        {
            "inputs": [
                {
                    "internalType": "address",
                    "name": "to",
                    "type": "address"
                },
                {
                    "internalType": "uint256",
                    "name": "tokenId",
                    "type": "uint256"
                }
            ],
            "name": "approve",
            "outputs": [],
            "stateMutability": "nonpayable",
            "type": "function"
        },
        {
            "inputs": [
                {
                    "internalType": "address",
                    "name": "owner",
                    "type": "address"
                }
            ],
            "name": "balanceOf",
            "outputs": [
                {
                    "internalType": "uint256",
                    "name": "",
                    "type": "uint256"
                }
            ],
            "stateMutability": "view",
            "type": "function"
        },
        {
            "inputs": [
                {
                    "internalType": "uint256",
                    "name": "tokenId",
                    "type": "uint256"
                }
            ],
            "name": "getApproved",
            "outputs": [
                {
                    "internalType": "address",
                    "name": "",
                    "type": "address"
                }
            ],
            "stateMutability": "view",
            "type": "function"
        },
        {
            "inputs": [
                {
                    "internalType": "address",
                    "name": "owner",
                    "type": "address"
                },
                {
                    "internalType": "address",
                    "name": "operator",
                    "type": "address"
                }
            ],
            "name": "isApprovedForAll",
            "outputs": [
                {
                    "internalType": "bool",
                    "name": "",
                    "type": "bool"
                }
            ],
            "stateMutability": "view",
            "type": "function"
        },
        {
            "inputs": [],
            "name": "makeAnEpicNFT",
            "outputs": [],
            "stateMutability": "nonpayable",
            "type": "function"
        },
        {
            "inputs": [],
            "name": "name",
            "outputs": [
                {
                    "internalType": "string",
                    "name": "",
                    "type": "string"
                }
            ],
            "stateMutability": "view",
            "type": "function"
        },
        {
            "inputs": [
                {
                    "internalType": "uint256",
                    "name": "tokenId",
                    "type": "uint256"
                }
            ],
            "name": "ownerOf",
            "outputs": [
                {
                    "internalType": "address",
                    "name": "",
                    "type": "address"
                }
            ],
            "stateMutability": "view",
            "type": "function"
        },
        {
            "inputs": [
                {
                    "internalType": "address",
                    "name": "from",
                    "type": "address"
                },
                {
                    "internalType": "address",
                    "name": "to",
                    "type": "address"
                },
                {
                    "internalType": "uint256",
                    "name": "tokenId",
                    "type": "uint256"
                }
            ],
            "name": "safeTransferFrom",
            "outputs": [],
            "stateMutability": "nonpayable",
            "type": "function"
        },
        {
            "inputs": [
                {
                    "internalType": "address",
                    "name": "from",
                    "type": "address"
                },
                {
                    "internalType": "address",
                    "name": "to",
                    "type": "address"
                },
                {
                    "internalType": "uint256",
                    "name": "tokenId",
                    "type": "uint256"
                },
                {
                    "internalType": "bytes",
                    "name": "data",
                    "type": "bytes"
                }
            ],
            "name": "safeTransferFrom",
            "outputs": [],
            "stateMutability": "nonpayable",
            "type": "function"
        },
        {
            "inputs": [
                {
                    "internalType": "address",
                    "name": "operator",
                    "type": "address"
                },
                {
                    "internalType": "bool",
                    "name": "approved",
                    "type": "bool"
                }
            ],
            "name": "setApprovalForAll",
            "outputs": [],
            "stateMutability": "nonpayable",
            "type": "function"
        },
        {
            "inputs": [
                {
                    "internalType": "bytes4",
                    "name": "interfaceId",
                    "type": "bytes4"
                }
            ],
            "name": "supportsInterface",
            "outputs": [
                {
                    "internalType": "bool",
                    "name": "",
                    "type": "bool"
                }
            ],
            "stateMutability": "view",
            "type": "function"
        },
        {
            "inputs": [],
            "name": "symbol",
            "outputs": [
                {
                    "internalType": "string",
                    "name": "",
                    "type": "string"
                }
            ],
            "stateMutability": "view",
            "type": "function"
        },
        {
            "inputs": [
                {
                    "internalType": "uint256",
                    "name": "_tokenId",
                    "type": "uint256"
                }
            ],
            "name": "tokenURI",
            "outputs": [
                {
                    "internalType": "string",
                    "name": "",
                    "type": "string"
                }
            ],
            "stateMutability": "view",
            "type": "function"
        },
        {
            "inputs": [
                {
                    "internalType": "address",
                    "name": "from",
                    "type": "address"
                },
                {
                    "internalType": "address",
                    "name": "to",
                    "type": "address"
                },
                {
                    "internalType": "uint256",
                    "name": "tokenId",
                    "type": "uint256"
                }
            ],
            "name": "transferFrom",
            "outputs": [],
            "stateMutability": "nonpayable",
            "type": "function"
        }
    ],
    "bytecode": "0x60806040523480156200001157600080fd5b506040518060400160405280600d81526020017f53656375747279204e46542773000000000000000000000000000000000000008152506040518060400160405280600d81526020017f5365637574727920436f72702e0000000000000000000000000000000000000081525081600090816200008f91906200047f565b508060019081620000a191906200047f565b505050620000ea6040518060400160405280601e81526020017f54686973206973206d79204e465420636f6e74726163742e20576f6168210000815250620000f860201b60201c565b600060078190555062000648565b62000198816040516024016200010f9190620005f5565b6040516020818303038152906040527f41304fac000000000000000000000000000000000000000000000000000000007bffffffffffffffffffffffffffffffffffffffffffffffffffffffff19166020820180517bffffffffffffffffffffffffffffffffffffffffffffffffffffffff83818316178352505050506200019b60201b60201c565b50565b620001c181620001bc620001c460201b6200084c17620001e560201b60201c565b60201c565b50565b60006a636f6e736f6c652e6c6f679050600080835160208501845afa505050565b620001f960201b6200155617819050919050565b6200020362000619565b565b600081519050919050565b7f4e487b7100000000000000000000000000000000000000000000000000000000600052604160045260246000fd5b7f4e487b7100000000000000000000000000000000000000000000000000000000600052602260045260246000fd5b600060028204905060018216806200028757607f821691505b6020821081036200029d576200029c6200023f565b5b50919050565b60008190508160005260206000209050919050565b60006020601f8301049050919050565b600082821b905092915050565b600060088302620003077fffffffffffffffffffffffffffffffffffffffffffffffffffffffffffffffff82620002c8565b620003138683620002c8565b95508019841693508086168417925050509392505050565b6000819050919050565b6000819050919050565b6000620003606200035a62000354846200032b565b62000335565b6200032b565b9050919050565b6000819050919050565b6200037c836200033f565b620003946200038b8262000367565b848454620002d5565b825550505050565b600090565b620003ab6200039c565b620003b881848462000371565b505050565b5b81811015620003e057620003d4600082620003a1565b600181019050620003be565b5050565b601f8211156200042f57620003f981620002a3565b6200040484620002b8565b8101602085101562000414578190505b6200042c6200042385620002b8565b830182620003bd565b50505b505050565b600082821c905092915050565b6000620004546000198460080262000434565b1980831691505092915050565b60006200046f838362000441565b9150826002028217905092915050565b6200048a8262000205565b67ffffffffffffffff811115620004a657620004a562000210565b5b620004b282546200026e565b620004bf828285620003e4565b600060209050601f831160018114620004f75760008415620004e2578287015190505b620004ee858262000461565b8655506200055e565b601f1984166200050786620002a3565b60005b8281101562000531578489015182556001820191506020850194506020810190506200050a565b868310156200055157848901516200054d601f89168262000441565b8355505b6001600288020188555050505b505050505050565b600082825260208201905092915050565b60005b83811015620005975780820151818401526020810190506200057a565b60008484015250505050565b6000601f19601f8301169050919050565b6000620005c18262000205565b620005cd818562000566565b9350620005df81856020860162000577565b620005ea81620005a3565b840191505092915050565b60006020820190508181036000830152620006118184620005b4565b905092915050565b7f4e487b7100000000000000000000000000000000000000000000000000000000600052605160045260246000fd5b61363a80620006586000396000f3fe608060405234801561001057600080fd5b50600436106100ea5760003560e01c806370a082311161008c578063b88d4fde11610066578063b88d4fde1461025b578063c87b56dd14610277578063de9d132f146102a7578063e985e9c5146102b1576100ea565b806370a08231146101f157806395d89b4114610221578063a22cb4651461023f576100ea565b8063095ea7b3116100c8578063095ea7b31461016d57806323b872dd1461018957806342842e0e146101a55780636352211e146101c1576100ea565b806301ffc9a7146100ef57806306fdde031461011f578063081812fc1461013d575b600080fd5b610109600480360381019061010491906115cc565b6102e1565b6040516101169190611614565b60405180910390f35b610127610342565b60405161013491906116bf565b60405180910390f35b61015760048036038101906101529190611717565b6103d4565b6040516101649190611785565b60405180910390f35b610187600480360381019061018291906117cc565b6103f0565b005b6101a3600480360381019061019e919061180c565b610406565b005b6101bf60048036038101906101ba919061180c565b610508565b005b6101db60048036038101906101d69190611717565b610528565b6040516101e89190611785565b60405180910390f35b61020b6004803603810190610206919061185f565b61053a565b604051610218919061189b565b60405180910390f35b6102296105f4565b60405161023691906116bf565b60405180910390f35b610259600480360381019061025491906118e2565b610686565b005b61027560048036038101906102709190611a57565b61069c565b005b610291600480360381019061028c9190611717565b6106b9565b60405161029e91906116bf565b60405180910390f35b6102af610780565b005b6102cb60048036038101906102c69190611ada565b6107b8565b6040516102d89190611614565b60405180910390f35b6000634906490660e01b7bffffffffffffffffffffffffffffffffffffffffffffffffffffffff1916827bffffffffffffffffffffffffffffffffffffffffffffffffffffffff1916148061033b575061033a8261086d565b5b9050919050565b60606000805461035190611b49565b80601f016020809104026020016040519081016040528092919081815260200182805461037d90611b49565b80156103ca5780601f1061039f576101008083540402835291602001916103ca565b820191906000526020600020905b8154815290600101906020018083116103ad57829003601f168201915b5050505050905090565b60006103df8261094f565b506103e9826109d7565b9050919050565b61040282826103fd610a14565b610a1c565b5050565b600073ffffffffffffffffffffffffffffffffffffffff168273ffffffffffffffffffffffffffffffffffffffff16036104785760006040517f64a0ae9200000000000000000000000000000000000000000000000000000000815260040161046f9190611785565b60405180910390fd5b600061048c8383610487610a14565b610a2e565b90508373ffffffffffffffffffffffffffffffffffffffff168173ffffffffffffffffffffffffffffffffffffffff1614610502578382826040517f64283d7b0000000000000000000000000000000000000000000000000000000081526004016104f993929190611b7a565b60405180910390fd5b50505050565b6105238383836040518060200160405280600081525061069c565b505050565b60006105338261094f565b9050919050565b60008073ffffffffffffffffffffffffffffffffffffffff168273ffffffffffffffffffffffffffffffffffffffff16036105ad5760006040517f89c62b640000000000000000000000000000000000000000000000000000000081526004016105a49190611785565b60405180910390fd5b600360008373ffffffffffffffffffffffffffffffffffffffff1673ffffffffffffffffffffffffffffffffffffffff168152602001908152602001600020549050919050565b60606001805461060390611b49565b80601f016020809104026020016040519081016040528092919081815260200182805461062f90611b49565b801561067c5780601f106106515761010080835404028352916020019161067c565b820191906000526020600020905b81548152906001019060200180831161065f57829003601f168201915b5050505050905090565b610698610691610a14565b8383610c48565b5050565b6106a7848484610406565b6106b384848484610db7565b50505050565b606060006106c683610528565b9050600073ffffffffffffffffffffffffffffffffffffffff168173ffffffffffffffffffffffffffffffffffffffff1603610737576040517f08c379a000000000000000000000000000000000000000000000000000000000815260040161072e90611bfd565b60405180910390fd5b61075a6040518060600160405280602581526020016135e0602591398483610f6e565b604051602001610769906133e3565b604051602081830303815290604052915050919050565b60006007549050610791338261100d565b61079a816106b9565b506001600760008282546107ae9190613432565b9250508190555050565b6000600560008473ffffffffffffffffffffffffffffffffffffffff1673ffffffffffffffffffffffffffffffffffffffff16815260200190815260200160002060008373ffffffffffffffffffffffffffffffffffffffff1673ffffffffffffffffffffffffffffffffffffffff16815260200190815260200160002060009054906101000a900460ff16905092915050565b60006a636f6e736f6c652e6c6f679050600080835160208501845afa505050565b60007f80ac58cd000000000000000000000000000000000000000000000000000000007bffffffffffffffffffffffffffffffffffffffffffffffffffffffff1916827bffffffffffffffffffffffffffffffffffffffffffffffffffffffff1916148061093857507f5b5e139f000000000000000000000000000000000000000000000000000000007bffffffffffffffffffffffffffffffffffffffffffffffffffffffff1916827bffffffffffffffffffffffffffffffffffffffffffffffffffffffff1916145b8061094857506109478261102b565b5b9050919050565b60008061095b83611095565b9050600073ffffffffffffffffffffffffffffffffffffffff168173ffffffffffffffffffffffffffffffffffffffff16036109ce57826040517f7e2732890000000000000000000000000000000000000000000000000000000081526004016109c5919061189b565b60405180910390fd5b80915050919050565b60006004600083815260200190815260200160002060009054906101000a900473ffffffffffffffffffffffffffffffffffffffff169050919050565b600033905090565b610a2983838360016110d2565b505050565b600080610a3a84611095565b9050600073ffffffffffffffffffffffffffffffffffffffff168373ffffffffffffffffffffffffffffffffffffffff1614610a7c57610a7b818486611297565b5b600073ffffffffffffffffffffffffffffffffffffffff168173ffffffffffffffffffffffffffffffffffffffff1614610b0d57610abe6000856000806110d2565b6001600360008373ffffffffffffffffffffffffffffffffffffffff1673ffffffffffffffffffffffffffffffffffffffff168152602001908152602001600020600082825403925050819055505b600073ffffffffffffffffffffffffffffffffffffffff168573ffffffffffffffffffffffffffffffffffffffff1614610b90576001600360008773ffffffffffffffffffffffffffffffffffffffff1673ffffffffffffffffffffffffffffffffffffffff168152602001908152602001600020600082825401925050819055505b846002600086815260200190815260200160002060006101000a81548173ffffffffffffffffffffffffffffffffffffffff021916908373ffffffffffffffffffffffffffffffffffffffff160217905550838573ffffffffffffffffffffffffffffffffffffffff168273ffffffffffffffffffffffffffffffffffffffff167fddf252ad1be2c89b69c2b068fc378daa952ba7f163c4a11628f55a4df523b3ef60405160405180910390a4809150509392505050565b600073ffffffffffffffffffffffffffffffffffffffff168273ffffffffffffffffffffffffffffffffffffffff1603610cb957816040517f5b08ba18000000000000000000000000000000000000000000000000000000008152600401610cb09190611785565b60405180910390fd5b80600560008573ffffffffffffffffffffffffffffffffffffffff1673ffffffffffffffffffffffffffffffffffffffff16815260200190815260200160002060008473ffffffffffffffffffffffffffffffffffffffff1673ffffffffffffffffffffffffffffffffffffffff16815260200190815260200160002060006101000a81548160ff0219169083151502179055508173ffffffffffffffffffffffffffffffffffffffff168373ffffffffffffffffffffffffffffffffffffffff167f17307eab39ab6107e8899845ad3d59bd9653f200f220920489ca2b5937696c3183604051610daa9190611614565b60405180910390a3505050565b60008373ffffffffffffffffffffffffffffffffffffffff163b1115610f68578273ffffffffffffffffffffffffffffffffffffffff1663150b7a02610dfb610a14565b8685856040518563ffffffff1660e01b8152600401610e1d94939291906134bb565b6020604051808303816000875af1925050508015610e5957506040513d601f19601f82011682018060405250810190610e56919061351c565b60015b610edd573d8060008114610e89576040519150601f19603f3d011682016040523d82523d6000602084013e610e8e565b606091505b506000815103610ed557836040517f64a0ae92000000000000000000000000000000000000000000000000000000008152600401610ecc9190611785565b60405180910390fd5b805181602001fd5b63150b7a0260e01b7bffffffffffffffffffffffffffffffffffffffffffffffffffffffff1916817bffffffffffffffffffffffffffffffffffffffffffffffffffffffff191614610f6657836040517f64a0ae92000000000000000000000000000000000000000000000000000000008152600401610f5d9190611785565b60405180910390fd5b505b50505050565b611008838383604051602401610f8693929190613549565b6040516020818303038152906040527f1c7ec448000000000000000000000000000000000000000000000000000000007bffffffffffffffffffffffffffffffffffffffffffffffffffffffff19166020820180517bffffffffffffffffffffffffffffffffffffffffffffffffffffffff838183161783525050505061135b565b505050565b611027828260405180602001604052806000815250611375565b5050565b60007f01ffc9a7000000000000000000000000000000000000000000000000000000007bffffffffffffffffffffffffffffffffffffffffffffffffffffffff1916827bffffffffffffffffffffffffffffffffffffffffffffffffffffffff1916149050919050565b60006002600083815260200190815260200160002060009054906101000a900473ffffffffffffffffffffffffffffffffffffffff169050919050565b808061110b5750600073ffffffffffffffffffffffffffffffffffffffff168273ffffffffffffffffffffffffffffffffffffffff1614155b1561123f57600061111b8461094f565b9050600073ffffffffffffffffffffffffffffffffffffffff168373ffffffffffffffffffffffffffffffffffffffff161415801561118657508273ffffffffffffffffffffffffffffffffffffffff168173ffffffffffffffffffffffffffffffffffffffff1614155b8015611199575061119781846107b8565b155b156111db57826040517fa9fbf51f0000000000000000000000000000000000000000000000000000000081526004016111d29190611785565b60405180910390fd5b811561123d57838573ffffffffffffffffffffffffffffffffffffffff168273ffffffffffffffffffffffffffffffffffffffff167f8c5be1e5ebec7d5bd14f71427d1e84f3dd0314c0f7b2291e5b200ac8c7c3b92560405160405180910390a45b505b836004600085815260200190815260200160002060006101000a81548173ffffffffffffffffffffffffffffffffffffffff021916908373ffffffffffffffffffffffffffffffffffffffff16021790555050505050565b6112a2838383611391565b61135657600073ffffffffffffffffffffffffffffffffffffffff168373ffffffffffffffffffffffffffffffffffffffff160361131757806040517f7e27328900000000000000000000000000000000000000000000000000000000815260040161130e919061189b565b60405180910390fd5b81816040517f177e802f00000000000000000000000000000000000000000000000000000000815260040161134d929190613587565b60405180910390fd5b505050565b6113728161136a61084c611452565b63ffffffff16565b50565b61137f838361145d565b61138c6000848484610db7565b505050565b60008073ffffffffffffffffffffffffffffffffffffffff168373ffffffffffffffffffffffffffffffffffffffff161415801561144957508273ffffffffffffffffffffffffffffffffffffffff168473ffffffffffffffffffffffffffffffffffffffff16148061140a575061140984846107b8565b5b8061144857508273ffffffffffffffffffffffffffffffffffffffff16611430836109d7565b73ffffffffffffffffffffffffffffffffffffffff16145b5b90509392505050565b611556819050919050565b600073ffffffffffffffffffffffffffffffffffffffff168273ffffffffffffffffffffffffffffffffffffffff16036114cf5760006040517f64a0ae920000000000000000000000000000000000000000000000000000000081526004016114c69190611785565b60405180910390fd5b60006114dd83836000610a2e565b9050600073ffffffffffffffffffffffffffffffffffffffff168173ffffffffffffffffffffffffffffffffffffffff16146115515760006040517f73c6ac6e0000000000000000000000000000000000000000000000000000000081526004016115489190611785565b60405180910390fd5b505050565b61155e6135b0565b565b6000604051905090565b600080fd5b600080fd5b60007fffffffff0000000000000000000000000000000000000000000000000000000082169050919050565b6115a981611574565b81146115b457600080fd5b50565b6000813590506115c6816115a0565b92915050565b6000602082840312156115e2576115e161156a565b5b60006115f0848285016115b7565b91505092915050565b60008115159050919050565b61160e816115f9565b82525050565b60006020820190506116296000830184611605565b92915050565b600081519050919050565b600082825260208201905092915050565b60005b8381101561166957808201518184015260208101905061164e565b60008484015250505050565b6000601f19601f8301169050919050565b60006116918261162f565b61169b818561163a565b93506116ab81856020860161164b565b6116b481611675565b840191505092915050565b600060208201905081810360008301526116d98184611686565b905092915050565b6000819050919050565b6116f4816116e1565b81146116ff57600080fd5b50565b600081359050611711816116eb565b92915050565b60006020828403121561172d5761172c61156a565b5b600061173b84828501611702565b91505092915050565b600073ffffffffffffffffffffffffffffffffffffffff82169050919050565b600061176f82611744565b9050919050565b61177f81611764565b82525050565b600060208201905061179a6000830184611776565b92915050565b6117a981611764565b81146117b457600080fd5b50565b6000813590506117c6816117a0565b92915050565b600080604083850312156117e3576117e261156a565b5b60006117f1858286016117b7565b925050602061180285828601611702565b9150509250929050565b6000806000606084860312156118255761182461156a565b5b6000611833868287016117b7565b9350506020611844868287016117b7565b925050604061185586828701611702565b9150509250925092565b6000602082840312156118755761187461156a565b5b6000611883848285016117b7565b91505092915050565b611895816116e1565b82525050565b60006020820190506118b0600083018461188c565b92915050565b6118bf816115f9565b81146118ca57600080fd5b50565b6000813590506118dc816118b6565b92915050565b600080604083850312156118f9576118f861156a565b5b6000611907858286016117b7565b9250506020611918858286016118cd565b9150509250929050565b600080fd5b600080fd5b7f4e487b7100000000000000000000000000000000000000000000000000000000600052604160045260246000fd5b61196482611675565b810181811067ffffffffffffffff821117156119835761198261192c565b5b80604052505050565b6000611996611560565b90506119a2828261195b565b919050565b600067ffffffffffffffff8211156119c2576119c161192c565b5b6119cb82611675565b9050602081019050919050565b82818337600083830152505050565b60006119fa6119f5846119a7565b61198c565b905082815260208101848484011115611a1657611a15611927565b5b611a218482856119d8565b509392505050565b600082601f830112611a3e57611a3d611922565b5b8135611a4e8482602086016119e7565b91505092915050565b60008060008060808587031215611a7157611a7061156a565b5b6000611a7f878288016117b7565b9450506020611a90878288016117b7565b9350506040611aa187828801611702565b925050606085013567ffffffffffffffff811115611ac257611ac161156f565b5b611ace87828801611a29565b91505092959194509250565b60008060408385031215611af157611af061156a565b5b6000611aff858286016117b7565b9250506020611b10858286016117b7565b9150509250929050565b7f4e487b7100000000000000000000000000000000000000000000000000000000600052602260045260246000fd5b60006002820490506001821680611b6157607f821691505b602082108103611b7457611b73611b1a565b5b50919050565b6000606082019050611b8f6000830186611776565b611b9c602083018561188c565b611ba96040830184611776565b949350505050565b7f546f6b656e20494420646f6573206e6f74206578697374000000000000000000600082015250565b6000611be760178361163a565b9150611bf282611bb1565b602082019050919050565b60006020820190508181036000830152611c1681611bda565b9050919050565b600081905092915050565b7f646174613a6170706c69636174696f6e2f6a736f6e3b6261736536342c000000600082015250565b6000611c5e601d83611c1d565b9150611c6982611c28565b601d82019050919050565b7f65794a755957316c496a6f695532566a645852796553424d623264764969776960008201527f5a47567a59334a7063485270623234694f694a426269424f526c51675a6e4a7660208201527f625342306147556761476c6e614778354947466a5932786861573168596d786c60408201527f49464e6c59335630636e6b67513239796347397959585270623234694c434a7060608201527f6257466e5a534936496d526864474536615731685a32557663335a6e4b33687460808201527f6244746959584e6c4e6a51735545684f4d6c7035516a4e68563149775955517760a08201527f6155313652544e4e65556c6e5955645763466f796144425155306c365456524660c08201527f4d456c70516a4a685631597a555730354e4642545358644a5245466e5458704660e08201527f4d3031355158704e5645557753576c436257465865484e5155307031596a49316101008201527f62456c70516a52695633683159336f7761574649556a426a5247393254444e6b6101208201527f4d3252354e544e4e655456325932316a646b31715158644e517a6c365a47316a6101408201527f6156426e627a686165554a74595664344d46705953546c4a626c5a35596b4e6e6101608201527f616c707462484e6b52315a3554555935613170734f48684e56464a6d5457706a6101808201527f63456c714e45745153454a6f5a45646e5a3170454d476c5556456c3454576b306101a08201527f4e5535365257644f616d6331544770524d3035466433704e564655315447704e6101c08201527f656b6c455254564f56466c315456527354553171617a464f6554523354586c426101e08201527f655535455254564d616b5578564552466430787157544a505647746e545652466102008201527f4d5531704e44424f525864355456524a645539555933684a52466b3054314d306102208201527f4d453536556d464a61554a745956643463314254536a466a6258647653544e436102408201527f614746584e54424e526a6c7a5956633162466c59536d5a4e564555775748704a6102608201527f4d30745453585a515a323834593064474d474644516d74515530704f545870466102808201527f4d6b31704e48705055304634543152564d30787152545652656b3133543152466102a08201527f645531365457644e616b6b7854576b304d306c455354564e616d7431546c52466102c08201527f5a30317156586850517a52345355524a4d6b39555933564e656d746e5457706a6102e08201527f654539544e44524e56553135546b525a4d5578715354524a52456b31545770466103008201527f645535555457644e616b557a54586b30656b6c455458644f56454631546c52466103208201527f5a3031555a7a4650517a5236546e6c42656b31456133644d616c4577555870466103408201527f4d5535455458564f5246466e54587046656b31444e48705051304634545770466103608201527f4e55787159336c4a52453133546e7072645535455932645056456b30544770466103808201527f6555353551586c5056464577544770464d6c46365758704f615451785458706e6103a08201527f5a3031715a336450517a5130546b4e42656b39555158564e564764355355524a6103c08201527f4d5539555658564e616b566e5457704a643078715358684e655546355458704e6103e08201527f6430787153544a5552466c3654554d304d45353551586c4e524773305447704a6104008201527f656c4636597a4250557a5177546b526e5a3031715354524e6554517a535552726104208201527f655531544e44525056474e6e54577052656b31354e486c4f513046345456524a6104408201527f4d6b78715158684a52456b785457706a64553955576b524e5645313654554d306104608201527f6545317051586c4f616b6c355447705a4e456c455254464f56466c31546e704e6104808201527f5a30317157544650517a523654564e4265453536597a4e4d616b55305355524a6104a08201527f4d6b31365158564e656c7045545652724e5535354e444a4e65554635546d70426104c08201527f655578715558684a52456c355455524a645531455257644e616c563454576b306104e08201527f6545317051586c4e656c6b77544770524e556c455358704f656b46315431524b6105008201527f5245317156586c4f61545131546e6c42655531715354564d616d4e355355524a6105208201527f4d6b35455158564e616c566e545770424d4531354e44564f51304635546d706e6105408201527f4e557871617a564a524555305458706a645531456145314e656b557954576b306105608201527f656b3954515868505646557a544770464e566470535764616257787a596b51776105808201527f61575259536e4e4c513035335756647364575245526d5a6952327831576c64476105a08201527f655668365258684f526a6835546e6c72615578364e45745153454a6f5a45646e6105c08201527f5a3170454d476c5556456b31546c5256645531715757644f656d6436544770526105e08201527f6556463653544e5052465631545770725a3035555254524d616c457a54576c426106008201527f655535555454524d616d74365355524e643035444e44524e656c466e5457704a6106208201527f4d4535354e48704f51304634546d70726455355553586c52656b5531546c52566106408201527f645535365657644e656c463154577046643035445158684f616b3135544770426106608201527f656b6c444d48684f615451795431526e5a3031555458684f655452345355524a6106808201527f656b78715358704f5246704554565242643031704e4868505130457954586b306106a08201527f6545357159336c4a52474e3454554d30654539555557644e56477435544770466106c08201527f4d4535355154424f656d64315455526e5a3031366133704d616d6379546c564e6106e08201527f655535455658565056466b79535552564e5535544e44465052456c6e543052526107008201527f645531555554424e61554530546d704264553955597a4e4a52455636544770426107208201527f4d3039545158684e56465579544770524e5652455554524f557a5177546e705a6107408201527f5a30315553544e4f615451785431564e4d5531365658564e616b6c35535552466107608201527f643035716133564f656c466e546d70524e4578715554564f615545305430524e6107808201527f645539555654564a5247643454554d304e5535365757644f656c46355447706a6107a08201527f4d5534775454564f656b3131546b52564d6b6c455758644e557a5178546c52566107c08201527f5a30315552544e4f65545130546b4e424d5531555258564e616c6b31535552466107e08201527f656b39555a33564e616d746e546b526e656b78715458684f61303134546d70466108008201527f4e457871597a424a52464578546c4d30656b35715457644e56476377546c4d306108208201527f656b35545154425056454631543152724e556c455358644f52477431546b525a6108408201527f5a3035555a7a464d616d4e34546a424e655531715658704d616c557a5355525a6108608201527f4e4531444e44424e656c6c6e54577052655535704e48644e61554530545770726108808201527f645539555a336c4a52456b78546b52565a3031555158684f557a5177546c56336108a08201527f655539555654464d616b6b795355526a4e4531354e44424e62473970535564616108c08201527f63474a48647a6c4a626c5a35596b4e6e616d4e48526e4269626c463557444a346108e08201527f63474a74566d686a62446834545652535a6b31715933424a61546772513270336109008201527f646c70364e45745152314a73576d354e4b304e716547316856336777576c684a6109208201527f5a32465855546c4a62567077596b685362474e71516d5a615231706d545652466109408201527f4d46683653544e4a6155493055464e4a6430787157544a4f656d737954314e4a6109608201527f5a3256554d476c4e51306c6e5a444a73613252485a7a6c4a616b3134546e70466109808201527f6455353653576c4a523268735956646b623252454d476c4e656b563454586b306109a08201527f4d6b3944535764616257787a5a45645765565a584e58426b53453035535735576109c08201527f656c7059536c526a52305a71576c553564565a59546d784a61554a71596a4a346109e08201527f646d4e704d584269626c4a7359323543646d4a48526a4268567a6c3154466461610a008201527f63474a49556d786a626b30355357354f5531497753576c515a323834576d3157610a208201527f52324a484f585a6151304a74596b6335646c70444d585a6a52305a7159566853610a408201527f4e5642545358644a61554a35576c684f4d574a4955546c4a6130706f57544a30610a608201527f626d4e744f54466962564a4b596c6447626c7056576e426c51306c3255476476610a808201527f4f467074566b52694d6e68325932737861475249536e426c51304a77596d6f77610aa08201527f615655794f54466a62553573555664346432464852576c4a5346493159306456610ac08201527f4f556c744d57686b534570775a554e4a5a325274526e4e6b56315a3655464e4a610ae08201527f64306c455157644e51304633535552425a3031445158644a5245466e54554e42610b008201527f64306c455157644e51304633535552425a3031445158644a5245466e54554e42610b208201527f654531715932644e51306c6e59323157656d525865444251553070765756684b610b408201527f61314658654864685230567054486f3053314248576d78554d6c7074597a4a57610b608201527f4d4578364e45745152317073556a4a474d574d7a546e425a567a5644596b6857610b808201527f65556c49546a426152564a735a4731736147524862485a69616a427054554d30610ba08201527f4d556c704f437444616e6874576c564f646d4a59516e5a6a4d6d7777576c4e43610bc08201527f63474a7153546c4a6257686f59323153516d4a49516d395a55306c6e596a4e43610be08201527f62474e74526a42694d306b35535730354d57524453585a515a323834576d3157610c008201527f5247497965485a6a617a466f5a45684b63475644516a426c57454a7355464e4b610c208201527f64466c59556e6c68574764705355686161474a49566d786a656a427054554e42610c408201527f64306c455157644e51304633535552425a3031445158644a5245466e54554e42610c608201527f64306c455157644e51304633535552425a3031445158644a5245466e54564e42610c808201527f64306c704f437444616e6874576c564b633170584e57744a527a4632576b6456610ca08201527f4f556c744e585a6a6254466f596b4e4a5a3246584e486c51553070445756644f610cc08201527f636c6f7a536e5a6b567a56725531637861466f79566b6468574764705355684b610ce08201527f62474d7a566e4e6b52444270576c646162567058546a424e566a6c7259323035610d008201527f6431557961476861527a6b7a57487046654535474f486c4f65556c3255476476610d208201527f4f467074566b4e6952315a31576b4e4364474979556d785155307031596a4e4b610d408201527f64466c5864326c4a5232783155464e4b5647497a566e6c5a4d6c5a4959323147610d608201527f643246486247704a61554a77596d704a4f556c74566d316162565a715a455247610d808201527f5a6c7049536e5a6a526b357657566453646d51784f48684e56464a6d5457706a610da08201527f61556c49536d786a4d315a7a5a45517761574d796147686a5231567054486f30610dc08201527f53314248576d78534d6b5978597a4e4f63466c584e554e6953465a355355684f610de08201527f4d467046556d786b6257786f5a456473646d4a714d476c4f55306c6e59323157610e008201527f656d52586544425155307073576d316162466b7a55586c594d6c703259323157610e208201527f626d4e744f54466962564a44596b6857655668365258684f526a6835546e6c4a610e408201527f646c426e627a684d4d6c7077596b685362474e714e45745152336877596d3157610e608201527f61474e725a486c5a56314a77576c63314d456c48624774515530703357566473610e808201527f64575245516d5a6952327831576c6447655668365258684f526a6835546e6c4a610ea08201527f5a32564552546c4a616b55785457705a6455315554576c4a5347743455464e4a610ec08201527f654531445357646c52456b35535770464d5531715758564e5645317053556872610ee08201527f655642545358704e564546365447705a4e456c70516d356a62555a7259566457610f008201527f64575247566e566857464a3655464e4b4d574d79566e6c564d304a6f57544a57610f208201527f55474a73566e706155306b7251327034656d52484f58644a53453477596a4e42610f408201527f64466b794f584e694d306b3553576c4e6430314657586c4f616b467054486f30610f608201527f53314249546a42694d30466e596a4a6162574d79566a425155306c335447706e610f808201527f4d55395554544e4f55306c6e597a4e53646d4e444d5770694d6e683259326f77610fa08201527f61556c365154464f656c5a47546d6c4a646c426e627a684d4d6e6877596d3157610fc08201527f61474e725a486c5a56314a77576c63314d46426e627a686952327831576c6447610fe08201527f6556497a536d686152327873596d35525a32465855546c4a626b4a6f595663316110008201527f4d4531574f584e68567a56735756684b5a6b315552544259656b6b7a53576c436110208201527f4e4531554d476c4e56465635546d6b30654531355357646c56455535535770466110408201527f64306c70516a524e616a427054565256655535704e48684e65556c6e5a56524a6110608201527f4f556c715458684e52453131546d706e61556c485a486c5a56314a77576c63316110808201527f4d465a584e58426b5345303553573557656c7059536c526a52305a71576c55356110a08201527f64565a59546d784a616a524c5545684f4d47497a5157646a4d314a3259304d786110c08201527f616d497965485a6a616a42705358704264314a7153544a4e51306c32554764766110e08201527f4f474d7a556e5a6a51304a32576d3161656c705955546c4a616b4631543052566111008201527f4e553136597a464a61554a365a45633564307858546e5a69527a6c3555464e4a6111208201527f616b314556544e4f5656557953576b344b304e7164335a6952327831576c64476111408201527f6556497a536d686152327873596d35524b304e7165484e68567a56735756684b6111608201527f53474e74526d746856315a315a454e43634670454d476c6a52305a77596d35526111808201527f655667796548426962565a6f5932773465453155556d5a4e616d4e705355686e6111a08201527f654642545358684f56456b7954477046656b6c70516a564e56444270545652426111c08201527f61556c495a336c5155306c34546c524a4d6b78715258704a6155493154576f776111e08201527f615531365258644e6554517954304e4a5a316f7a536d686152327873596d35536112008201527f566d4a746244426a656a42705a46684f62474e73546e645a56303573564449316112208201527f566d4d7956576c515a323834597a4e53646d4e44516e706b527a6c335446644f6112408201527f646d4a484f586c5155306c7154555243523031715758644a61546772513270346112608201527f656d52484f58644a527a6c74576d354f624752454d476c4e517a5130546c52726112808201527f656b353656576c4a53453477596a4e4264466b794f584e694d306b3553576c4e6112a08201527f64303555597a465356466c7054486f30533142444f584e68567a56735756684b6112c08201527f53474e74526d746856315a315a455130533142444f57746156317036554764766112e08201527f4f45777a546a4a61656a524c496e303d0000000000000000000000000000000061130082015250565b60006133cc61131083611c1d565b91506133d782611c74565b61131082019050919050565b60006133ee82611c51565b91506133f9826133be565b9150819050919050565b7f4e487b7100000000000000000000000000000000000000000000000000000000600052601160045260246000fd5b600061343d826116e1565b9150613448836116e1565b92508282019050808211156134605761345f613403565b5b92915050565b600081519050919050565b600082825260208201905092915050565b600061348d82613466565b6134978185613471565b93506134a781856020860161164b565b6134b081611675565b840191505092915050565b60006080820190506134d06000830187611776565b6134dd6020830186611776565b6134ea604083018561188c565b81810360608301526134fc8184613482565b905095945050505050565b600081519050613516816115a0565b92915050565b6000602082840312156135325761353161156a565b5b600061354084828501613507565b91505092915050565b600060608201905081810360008301526135638186611686565b9050613572602083018561188c565b61357f6040830184611776565b949350505050565b600060408201905061359c6000830185611776565b6135a9602083018461188c565b9392505050565b7f4e487b7100000000000000000000000000000000000000000000000000000000600052605160045260246000fdfe416e204e465420772f20494420257320686173206265656e206d696e74656420746f202573a2646970667358221220aad203c301d3540e52ee103963c1ed83314c2c3ae4059d3ad56095d526b5e41f64736f6c63430008140033",
    "linkReferences": {},
    "deployedLinkReferences": {}
}